{"abi":[{"type":"constructor","inputs":[{"name":"priceFeed","type":"address","internalType":"address"}],"stateMutability":"nonpayable"},{"type":"fallback","stateMutability":"payable"},{"type":"receive","stateMutability":"payable"},{"type":"function","name":"MINIMUM_USD","inputs":[],"outputs":[{"name":"","type":"uint256","internalType":"uint256"}],"stateMutability":"view"},{"type":"function","name":"fund","inputs":[],"outputs":[],"stateMutability":"payable"},{"type":"function","name":"getAddressToAmountFunded","inputs":[{"name":"fundingAddress","type":"address","internalType":"address"}],"outputs":[{"name":"","type":"uint256","internalType":"uint256"}],"stateMutability":"view"},{"type":"function","name":"getFounder","inputs":[{"name":"index","type":"uint256","internalType":"uint256"}],"outputs":[{"name":"","type":"address","internalType":"address"}],"stateMutability":"view"},{"type":"function","name":"getVersion","inputs":[],"outputs":[{"name":"","type":"uint256","internalType":"uint256"}],"stateMutability":"view"},{"type":"function","name":"i_owner","inputs":[],"outputs":[{"name":"","type":"address","internalType":"address"}],"stateMutability":"view"},{"type":"function","name":"withdraw","inputs":[],"outputs":[],"stateMutability":"nonpayable"},{"type":"error","name":"FundMe_NotOwner","inputs":[]}],"bytecode":{"object":"0x608060405234801561001057600080fd5b506040516107b03803806107b083398101604081905261002f91610062565b60028054336001600160a01b031991821617909155600380549091166001600160a01b0392909216919091179055610092565b60006020828403121561007457600080fd5b81516001600160a01b038116811461008b57600080fd5b9392505050565b61070f806100a16000396000f3fe6080604052600436106100745760003560e01c80633ccfd60b1161004e5780633ccfd60b146101215780636b69a59214610136578063b60d428814610083578063dba6335f1461015257610083565b80630343fb251461008b5780630d8e6e2c146100d45780633bcb43f3146100e957610083565b3661008357610081610172565b005b610081610172565b34801561009757600080fd5b506100c16100a636600461054e565b6001600160a01b031660009081526020819052604090205490565b6040519081526020015b60405180910390f35b3480156100e057600080fd5b506100c161024d565b3480156100f557600080fd5b50610109610104366004610577565b6102c0565b6040516001600160a01b0390911681526020016100cb565b34801561012d57600080fd5b506100816102f0565b34801561014257600080fd5b506100c1674563918244f4000081565b34801561015e57600080fd5b50600254610109906001600160a01b031681565b600354674563918244f40000906101939034906001600160a01b0316610419565b10156101e65760405162461bcd60e51b815260206004820152601b60248201527f596f75206e65656420746f207370656e64206d6f72652045544821000000000060448201526064015b60405180910390fd5b33600090815260208190526040812080543492906102059084906105a6565b90915550506001805480820182556000919091527fb10e2d527612073b26eecdfd717e6a320cf44b4afac2b0732d9fcbe2b7fa0cf60180546001600160a01b03191633179055565b6003546040805163054fd4d560e41b815290516000926001600160a01b0316916354fd4d509160048083019260209291908290030181865afa158015610297573d6000803e3d6000fd5b505050506040513d601f19601f820116820180604052508101906102bb91906105b9565b905090565b6000600182815481106102d5576102d56105d2565b6000918252602090912001546001600160a01b031692915050565b6002546001600160a01b0316331461031b576040516310e0797960e01b815260040160405180910390fd5b60005b6001548110156103715760006001828154811061033d5761033d6105d2565b60009182526020808320909101546001600160a01b0316825281905260408120555080610369816105e8565b91505061031e565b50604080516000815260208101918290525161038f916001916104d4565b50604051600090339047908381818185875af1925050503d80600081146103d2576040519150601f19603f3d011682016040523d82523d6000602084013e6103d7565b606091505b50509050806104165760405162461bcd60e51b815260206004820152600b60248201526a10d85b1b0819985a5b195960aa1b60448201526064016101dd565b50565b60008061042583610451565b90506000670de0b6b3a764000061043c8684610601565b6104469190610618565b925050505b92915050565b600080826001600160a01b031663feaf968c6040518163ffffffff1660e01b815260040160a060405180830381865afa158015610492573d6000803e3d6000fd5b505050506040513d601f19601f820116820180604052508101906104b69190610659565b505050915050806402540be4006104cd91906106a9565b9392505050565b828054828255906000526020600020908101928215610529579160200282015b8281111561052957825182546001600160a01b0319166001600160a01b039091161782556020909201916001909101906104f4565b50610535929150610539565b5090565b5b80821115610535576000815560010161053a565b60006020828403121561056057600080fd5b81356001600160a01b03811681146104cd57600080fd5b60006020828403121561058957600080fd5b5035919050565b634e487b7160e01b600052601160045260246000fd5b8082018082111561044b5761044b610590565b6000602082840312156105cb57600080fd5b5051919050565b634e487b7160e01b600052603260045260246000fd5b6000600182016105fa576105fa610590565b5060010190565b808202811582820484141761044b5761044b610590565b60008261063557634e487b7160e01b600052601260045260246000fd5b500490565b805169ffffffffffffffffffff8116811461065457600080fd5b919050565b600080600080600060a0868803121561067157600080fd5b61067a8661063a565b945060208601519350604086015192506060860151915061069d6080870161063a565b90509295509295909350565b80820260008212600160ff1b841416156106c5576106c5610590565b818105831482151761044b5761044b61059056fea264697066735822122037eb3f7faf71ecf3dc1066969da3f3b869f22d444c63aab7812a0ce18f3e188f64736f6c63430008130033","linkReferences":{}},"methodIdentifiers":{"MINIMUM_USD()":"6b69a592","fund()":"b60d4288","getAddressToAmountFunded(address)":"0343fb25","getFounder(uint256)":"3bcb43f3","getVersion()":"0d8e6e2c","i_owner()":"dba6335f","withdraw()":"3ccfd60b"},"id":27}