{"abi":[{"type":"constructor","inputs":[{"name":"priceFeed","type":"address","internalType":"address"}],"stateMutability":"nonpayable"},{"type":"fallback","stateMutability":"payable"},{"type":"receive","stateMutability":"payable"},{"type":"function","name":"MINIMUM_USD","inputs":[],"outputs":[{"name":"","type":"uint256","internalType":"uint256"}],"stateMutability":"view"},{"type":"function","name":"addressToAmountFunded","inputs":[{"name":"","type":"address","internalType":"address"}],"outputs":[{"name":"","type":"uint256","internalType":"uint256"}],"stateMutability":"view"},{"type":"function","name":"fund","inputs":[],"outputs":[],"stateMutability":"payable"},{"type":"function","name":"funders","inputs":[{"name":"","type":"uint256","internalType":"uint256"}],"outputs":[{"name":"","type":"address","internalType":"address"}],"stateMutability":"view"},{"type":"function","name":"getVersion","inputs":[],"outputs":[{"name":"","type":"uint256","internalType":"uint256"}],"stateMutability":"view"},{"type":"function","name":"i_owner","inputs":[],"outputs":[{"name":"","type":"address","internalType":"address"}],"stateMutability":"view"},{"type":"function","name":"withdraw","inputs":[],"outputs":[],"stateMutability":"nonpayable"},{"type":"error","name":"FundMe_NotOwner","inputs":[]}],"bytecode":{"object":"0x608060405234801561001057600080fd5b506040516107a13803806107a183398101604081905261002f91610062565b60028054336001600160a01b031991821617909155600380549091166001600160a01b0392909216919091179055610092565b60006020828403121561007457600080fd5b81516001600160a01b038116811461008b57600080fd5b9392505050565b610700806100a16000396000f3fe6080604052600436106100745760003560e01c80636b69a5921161004e5780636b69a592146100f5578063b60d428814610083578063dba6335f14610111578063dc0d3dff1461014957610083565b80630d8e6e2c1461008b5780633ccfd60b146100b35780633e47d6f3146100c857610083565b3661008357610081610169565b005b610081610169565b34801561009757600080fd5b506100a0610244565b6040519081526020015b60405180910390f35b3480156100bf57600080fd5b506100816102b7565b3480156100d457600080fd5b506100a06100e336600461053f565b60006020819052908152604090205481565b34801561010157600080fd5b506100a0674563918244f4000081565b34801561011d57600080fd5b50600254610131906001600160a01b031681565b6040516001600160a01b0390911681526020016100aa565b34801561015557600080fd5b50610131610164366004610568565b6103e0565b600354674563918244f400009061018a9034906001600160a01b031661040a565b10156101dd5760405162461bcd60e51b815260206004820152601b60248201527f596f75206e65656420746f207370656e64206d6f72652045544821000000000060448201526064015b60405180910390fd5b33600090815260208190526040812080543492906101fc908490610597565b90915550506001805480820182556000919091527fb10e2d527612073b26eecdfd717e6a320cf44b4afac2b0732d9fcbe2b7fa0cf60180546001600160a01b03191633179055565b6003546040805163054fd4d560e41b815290516000926001600160a01b0316916354fd4d509160048083019260209291908290030181865afa15801561028e573d6000803e3d6000fd5b505050506040513d601f19601f820116820180604052508101906102b291906105aa565b905090565b6002546001600160a01b031633146102e2576040516310e0797960e01b815260040160405180910390fd5b60005b60015481101561033857600060018281548110610304576103046105c3565b60009182526020808320909101546001600160a01b0316825281905260408120555080610330816105d9565b9150506102e5565b506040805160008152602081019182905251610356916001916104c5565b50604051600090339047908381818185875af1925050503d8060008114610399576040519150601f19603f3d011682016040523d82523d6000602084013e61039e565b606091505b50509050806103dd5760405162461bcd60e51b815260206004820152600b60248201526a10d85b1b0819985a5b195960aa1b60448201526064016101d4565b50565b600181815481106103f057600080fd5b6000918252602090912001546001600160a01b0316905081565b60008061041683610442565b90506000670de0b6b3a764000061042d86846105f2565b6104379190610609565b925050505b92915050565b600080826001600160a01b031663feaf968c6040518163ffffffff1660e01b815260040160a060405180830381865afa158015610483573d6000803e3d6000fd5b505050506040513d601f19601f820116820180604052508101906104a7919061064a565b505050915050806402540be4006104be919061069a565b9392505050565b82805482825590600052602060002090810192821561051a579160200282015b8281111561051a57825182546001600160a01b0319166001600160a01b039091161782556020909201916001909101906104e5565b5061052692915061052a565b5090565b5b80821115610526576000815560010161052b565b60006020828403121561055157600080fd5b81356001600160a01b03811681146104be57600080fd5b60006020828403121561057a57600080fd5b5035919050565b634e487b7160e01b600052601160045260246000fd5b8082018082111561043c5761043c610581565b6000602082840312156105bc57600080fd5b5051919050565b634e487b7160e01b600052603260045260246000fd5b6000600182016105eb576105eb610581565b5060010190565b808202811582820484141761043c5761043c610581565b60008261062657634e487b7160e01b600052601260045260246000fd5b500490565b805169ffffffffffffffffffff8116811461064557600080fd5b919050565b600080600080600060a0868803121561066257600080fd5b61066b8661062b565b945060208601519350604086015192506060860151915061068e6080870161062b565b90509295509295909350565b80820260008212600160ff1b841416156106b6576106b6610581565b818105831482151761043c5761043c61058156fea2646970667358221220f98a368201b522a3fad23c71d46e2fb1e9369bcdb700f373d9ee26dfa52d1f4b64736f6c63430008130033","linkReferences":{}},"methodIdentifiers":{"MINIMUM_USD()":"6b69a592","addressToAmountFunded(address)":"3e47d6f3","fund()":"b60d4288","funders(uint256)":"dc0d3dff","getVersion()":"0d8e6e2c","i_owner()":"dba6335f","withdraw()":"3ccfd60b"},"id":26}